{
  "address": "0x2743E0Ea86b0c6C5F7588445206058B7f10f8C0C",
  "abi": [
    {
      "inputs": [
        {
          "internalType": "contract EasySwapMakerToken",
          "name": "_esm",
          "type": "address"
        },
        {
          "internalType": "address",
          "name": "_devaddr",
          "type": "address"
        },
        {
          "internalType": "uint256",
          "name": "_esmPerBlock",
          "type": "uint256"
        },
        {
          "internalType": "uint256",
          "name": "_startBlock",
          "type": "uint256"
        },
        {
          "internalType": "uint256",
          "name": "_firstStageEndBlock",
          "type": "uint256"
        },
        {
          "internalType": "uint256",
          "name": "_firstStageMultiplier",
          "type": "uint256"
        }
      ],
      "stateMutability": "nonpayable",
      "type": "constructor"
    },
    {
      "anonymous": false,
      "inputs": [
        {
          "indexed": true,
          "internalType": "address",
          "name": "user",
          "type": "address"
        },
        {
          "indexed": true,
          "internalType": "uint256",
          "name": "pid",
          "type": "uint256"
        },
        {
          "indexed": false,
          "internalType": "uint256",
          "name": "amount",
          "type": "uint256"
        }
      ],
      "name": "Deposit",
      "type": "event"
    },
    {
      "anonymous": false,
      "inputs": [
        {
          "indexed": true,
          "internalType": "address",
          "name": "user",
          "type": "address"
        },
        {
          "indexed": true,
          "internalType": "uint256",
          "name": "pid",
          "type": "uint256"
        },
        {
          "indexed": false,
          "internalType": "uint256",
          "name": "amount",
          "type": "uint256"
        }
      ],
      "name": "EmergencyWithdraw",
      "type": "event"
    },
    {
      "anonymous": false,
      "inputs": [
        {
          "indexed": true,
          "internalType": "address",
          "name": "previousOwner",
          "type": "address"
        },
        {
          "indexed": true,
          "internalType": "address",
          "name": "newOwner",
          "type": "address"
        }
      ],
      "name": "OwnershipTransferred",
      "type": "event"
    },
    {
      "anonymous": false,
      "inputs": [
        {
          "indexed": false,
          "internalType": "uint256",
          "name": "endBlock",
          "type": "uint256"
        },
        {
          "indexed": false,
          "internalType": "uint256",
          "name": "multiplier",
          "type": "uint256"
        }
      ],
      "name": "StageAdded",
      "type": "event"
    },
    {
      "anonymous": false,
      "inputs": [
        {
          "indexed": true,
          "internalType": "address",
          "name": "user",
          "type": "address"
        },
        {
          "indexed": true,
          "internalType": "uint256",
          "name": "pid",
          "type": "uint256"
        },
        {
          "indexed": false,
          "internalType": "uint256",
          "name": "amount",
          "type": "uint256"
        }
      ],
      "name": "Withdraw",
      "type": "event"
    },
    {
      "inputs": [
        {
          "internalType": "uint256",
          "name": "_allocPoint",
          "type": "uint256"
        },
        {
          "internalType": "contract IERC20",
          "name": "_lpToken",
          "type": "address"
        },
        {
          "internalType": "bool",
          "name": "_withUpdate",
          "type": "bool"
        }
      ],
      "name": "add",
      "outputs": [],
      "stateMutability": "nonpayable",
      "type": "function"
    },
    {
      "inputs": [
        {
          "internalType": "uint256",
          "name": "_endBlock",
          "type": "uint256"
        },
        {
          "internalType": "uint256",
          "name": "_multiplier",
          "type": "uint256"
        }
      ],
      "name": "addStage",
      "outputs": [],
      "stateMutability": "nonpayable",
      "type": "function"
    },
    {
      "inputs": [],
      "name": "bonusEndBlock",
      "outputs": [
        {
          "internalType": "uint256",
          "name": "",
          "type": "uint256"
        }
      ],
      "stateMutability": "view",
      "type": "function"
    },
    {
      "inputs": [
        {
          "internalType": "uint256",
          "name": "_pid",
          "type": "uint256"
        },
        {
          "internalType": "uint256",
          "name": "_amount",
          "type": "uint256"
        }
      ],
      "name": "deposit",
      "outputs": [],
      "stateMutability": "nonpayable",
      "type": "function"
    },
    {
      "inputs": [
        {
          "internalType": "address",
          "name": "_devaddr",
          "type": "address"
        }
      ],
      "name": "dev",
      "outputs": [],
      "stateMutability": "nonpayable",
      "type": "function"
    },
    {
      "inputs": [],
      "name": "devaddr",
      "outputs": [
        {
          "internalType": "address",
          "name": "",
          "type": "address"
        }
      ],
      "stateMutability": "view",
      "type": "function"
    },
    {
      "inputs": [
        {
          "internalType": "uint256",
          "name": "_pid",
          "type": "uint256"
        }
      ],
      "name": "emergencyWithdraw",
      "outputs": [],
      "stateMutability": "nonpayable",
      "type": "function"
    },
    {
      "inputs": [],
      "name": "esm",
      "outputs": [
        {
          "internalType": "contract EasySwapMakerToken",
          "name": "",
          "type": "address"
        }
      ],
      "stateMutability": "view",
      "type": "function"
    },
    {
      "inputs": [],
      "name": "esmPerBlock",
      "outputs": [
        {
          "internalType": "uint256",
          "name": "",
          "type": "uint256"
        }
      ],
      "stateMutability": "view",
      "type": "function"
    },
    {
      "inputs": [
        {
          "internalType": "uint256",
          "name": "_from",
          "type": "uint256"
        },
        {
          "internalType": "uint256",
          "name": "_to",
          "type": "uint256"
        }
      ],
      "name": "getMultiplier",
      "outputs": [
        {
          "internalType": "uint256",
          "name": "",
          "type": "uint256"
        }
      ],
      "stateMutability": "view",
      "type": "function"
    },
    {
      "inputs": [],
      "name": "massUpdatePools",
      "outputs": [],
      "stateMutability": "nonpayable",
      "type": "function"
    },
    {
      "inputs": [
        {
          "internalType": "uint256",
          "name": "_pid",
          "type": "uint256"
        }
      ],
      "name": "migrate",
      "outputs": [],
      "stateMutability": "nonpayable",
      "type": "function"
    },
    {
      "inputs": [],
      "name": "migrator",
      "outputs": [
        {
          "internalType": "contract IMigratorChef",
          "name": "",
          "type": "address"
        }
      ],
      "stateMutability": "view",
      "type": "function"
    },
    {
      "inputs": [],
      "name": "owner",
      "outputs": [
        {
          "internalType": "address",
          "name": "",
          "type": "address"
        }
      ],
      "stateMutability": "view",
      "type": "function"
    },
    {
      "inputs": [
        {
          "internalType": "uint256",
          "name": "_pid",
          "type": "uint256"
        },
        {
          "internalType": "address",
          "name": "_user",
          "type": "address"
        }
      ],
      "name": "pendingEsm",
      "outputs": [
        {
          "internalType": "uint256",
          "name": "",
          "type": "uint256"
        }
      ],
      "stateMutability": "view",
      "type": "function"
    },
    {
      "inputs": [
        {
          "internalType": "uint256",
          "name": "",
          "type": "uint256"
        }
      ],
      "name": "poolInfo",
      "outputs": [
        {
          "internalType": "contract IERC20",
          "name": "lpToken",
          "type": "address"
        },
        {
          "internalType": "uint256",
          "name": "allocPoint",
          "type": "uint256"
        },
        {
          "internalType": "uint256",
          "name": "lastRewardBlock",
          "type": "uint256"
        },
        {
          "internalType": "uint256",
          "name": "accEsmPerShare",
          "type": "uint256"
        }
      ],
      "stateMutability": "view",
      "type": "function"
    },
    {
      "inputs": [],
      "name": "poolLength",
      "outputs": [
        {
          "internalType": "uint256",
          "name": "",
          "type": "uint256"
        }
      ],
      "stateMutability": "view",
      "type": "function"
    },
    {
      "inputs": [],
      "name": "renounceOwnership",
      "outputs": [],
      "stateMutability": "nonpayable",
      "type": "function"
    },
    {
      "inputs": [
        {
          "internalType": "uint256",
          "name": "_pid",
          "type": "uint256"
        },
        {
          "internalType": "uint256",
          "name": "_allocPoint",
          "type": "uint256"
        },
        {
          "internalType": "bool",
          "name": "_withUpdate",
          "type": "bool"
        }
      ],
      "name": "set",
      "outputs": [],
      "stateMutability": "nonpayable",
      "type": "function"
    },
    {
      "inputs": [
        {
          "internalType": "contract IMigratorChef",
          "name": "_migrator",
          "type": "address"
        }
      ],
      "name": "setMigrator",
      "outputs": [],
      "stateMutability": "nonpayable",
      "type": "function"
    },
    {
      "inputs": [
        {
          "internalType": "uint256",
          "name": "",
          "type": "uint256"
        }
      ],
      "name": "stages",
      "outputs": [
        {
          "internalType": "uint256",
          "name": "endBlock",
          "type": "uint256"
        },
        {
          "internalType": "uint256",
          "name": "multiplier",
          "type": "uint256"
        }
      ],
      "stateMutability": "view",
      "type": "function"
    },
    {
      "inputs": [],
      "name": "startBlock",
      "outputs": [
        {
          "internalType": "uint256",
          "name": "",
          "type": "uint256"
        }
      ],
      "stateMutability": "view",
      "type": "function"
    },
    {
      "inputs": [],
      "name": "totalAllocPoint",
      "outputs": [
        {
          "internalType": "uint256",
          "name": "",
          "type": "uint256"
        }
      ],
      "stateMutability": "view",
      "type": "function"
    },
    {
      "inputs": [
        {
          "internalType": "address",
          "name": "newOwner",
          "type": "address"
        }
      ],
      "name": "transferOwnership",
      "outputs": [],
      "stateMutability": "nonpayable",
      "type": "function"
    },
    {
      "inputs": [
        {
          "internalType": "uint256",
          "name": "_pid",
          "type": "uint256"
        }
      ],
      "name": "updatePool",
      "outputs": [],
      "stateMutability": "nonpayable",
      "type": "function"
    },
    {
      "inputs": [
        {
          "internalType": "uint256",
          "name": "",
          "type": "uint256"
        },
        {
          "internalType": "address",
          "name": "",
          "type": "address"
        }
      ],
      "name": "userInfo",
      "outputs": [
        {
          "internalType": "uint256",
          "name": "amount",
          "type": "uint256"
        },
        {
          "internalType": "uint256",
          "name": "rewardDebt",
          "type": "uint256"
        }
      ],
      "stateMutability": "view",
      "type": "function"
    },
    {
      "inputs": [
        {
          "internalType": "uint256",
          "name": "_pid",
          "type": "uint256"
        },
        {
          "internalType": "uint256",
          "name": "_amount",
          "type": "uint256"
        }
      ],
      "name": "withdraw",
      "outputs": [],
      "stateMutability": "nonpayable",
      "type": "function"
    }
  ],
  "transactionHash": "0xb6504c83f1d80e4e21e054347d6330df6a0b132414b37843b41e3cafbc018964",
  "args": [
    "0x605341403C8177f3F446fe049D7d5C5714316f94",
    "0x70C7F5dABeE8e04f88E029D16E6b6dbdC4FEFaB0",
    "1000000000000000000",
    7764851,
    7793651,
    100
  ],
  "solcInputHash": "88b04d27d301a4397004981f2db5ce0e",
  "bytecode": "0x6080604052600060085534801561001557600080fd5b50604051612086380380612086833981810160405260c081101561003857600080fd5b508051602082015160408301516060840151608085015160a09095015193949293919290916000610067610163565b600080546001600160a01b0319166001600160a01b0383169081178255604051929350917f8be0079c531659141344cd1fd0a4f28419497f9722a3daafe3b4186f6b6457e0908290a350600180546001600160a01b039788166001600160a01b0319918216178255600280549790981696169590951786556004939093556009919091556040805180820190915290815260208101918252600a8054938401815560005251919092027fc65a7bb8d6351c1cf70c95a316cc6a92839c986682d98bc35f958f4883f9d2a881019190915590517fc65a7bb8d6351c1cf70c95a316cc6a92839c986682d98bc35f958f4883f9d2a990910155610167565b3390565b611f10806101766000396000f3fe608060405234801561001057600080fd5b50600436106101a95760003560e01c806364482f79116100f95780638dbb1e3a11610097578063af41b24811610071578063af41b2481461046c578063d49e77cd14610474578063e2bbb1581461047c578063f2fde38b1461049f576101a9565b80638dbb1e3a146103fa57806393f1a40b1461041d5780639f49cefb14610449576101a9565b80637cd07e47116100d35780637cd07e4714610372578063845ddcb2146103965780638d88a90e146103cc5780638da5cb5b146103f2576101a9565b806364482f7914610337578063715018a61461036257806377362fcc1461036a576101a9565b80633ef8424f1161016657806348cd4cb11161014057806348cd4cb1146102ed57806351eb05a6146102f55780635312ea8e14610312578063630b5ba11461032f576101a9565b80633ef8424f14610281578063441a3e70146102ad578063454b0608146102d0576101a9565b8063081e3eda146101ae5780631526fe27146101c857806317caf6f1146102155780631aed65531461021d5780631eaaa0451461022557806323cf31181461025b575b600080fd5b6101b66104c5565b60408051918252519081900360200190f35b6101e5600480360360208110156101de57600080fd5b50356104cb565b604080516001600160a01b0390951685526020850193909352838301919091526060830152519081900360800190f35b6101b661050c565b6101b6610512565b6102596004803603606081101561023b57600080fd5b508035906001600160a01b0360208201351690604001351515610518565b005b6102596004803603602081101561027157600080fd5b50356001600160a01b03166106aa565b6101b66004803603604081101561029757600080fd5b50803590602001356001600160a01b031661072e565b610259600480360360408110156102c357600080fd5b50803590602001356108b2565b610259600480360360208110156102e657600080fd5b50356109f9565b6101b6610c55565b6102596004803603602081101561030b57600080fd5b5035610c5b565b6102596004803603602081101561032857600080fd5b5035610e96565b610259610f31565b6102596004803603606081101561034d57600080fd5b50803590602081013590604001351515610f54565b61025961102f565b6101b66110db565b61037a6110e1565b604080516001600160a01b039092168252519081900360200190f35b6103b3600480360360208110156103ac57600080fd5b50356110f0565b6040805192835260208301919091528051918290030190f35b610259600480360360208110156103e257600080fd5b50356001600160a01b031661111b565b61037a611188565b6101b66004803603604081101561041057600080fd5b5080359060200135611197565b6103b36004803603604081101561043357600080fd5b50803590602001356001600160a01b0316611268565b6102596004803603604081101561045f57600080fd5b508035906020013561128c565b61037a611404565b61037a611413565b6102596004803603604081101561049257600080fd5b5080359060200135611422565b610259600480360360208110156104b557600080fd5b50356001600160a01b0316611527565b60065490565b600681815481106104d857fe5b600091825260209091206004909102018054600182015460028301546003909301546001600160a01b039092169350919084565b60085481565b60035481565b610520611629565b6001600160a01b0316610531611188565b6001600160a01b03161461057a576040805162461bcd60e51b81526020600482018190526024820152600080516020611e5b833981519152604482015290519081900360640190fd5b801561058857610588610f31565b600060095461059561162d565b116105a2576009546105aa565b6105aa61162d565b6008549091506105ba9085611631565b600855604080516080810182526001600160a01b0394851681526020810195865290810191825260006060820181815260068054600181018255925291517ff652222313e28459528d920b65115c16c04f3efc82aaedc97be59f3f377c0d3f600490920291820180546001600160a01b031916919096161790945593517ff652222313e28459528d920b65115c16c04f3efc82aaedc97be59f3f377c0d40840155517ff652222313e28459528d920b65115c16c04f3efc82aaedc97be59f3f377c0d418301555090517ff652222313e28459528d920b65115c16c04f3efc82aaedc97be59f3f377c0d4290910155565b6106b2611629565b6001600160a01b03166106c3611188565b6001600160a01b03161461070c576040805162461bcd60e51b81526020600482018190526024820152600080516020611e5b833981519152604482015290519081900360640190fd5b600580546001600160a01b0319166001600160a01b0392909216919091179055565b6000806006848154811061073e57fe5b600091825260208083208784526007825260408085206001600160a01b03898116875290845281862060049586029093016003810154815484516370a0823160e01b81523098810198909852935191985093969395939492909116926370a08231926024808301939192829003018186803b1580156107bc57600080fd5b505afa1580156107d0573d6000803e3d6000fd5b505050506040513d60208110156107e657600080fd5b505160028501549091506107f861162d565b11801561080457508015155b15610877576000610820856002015461081b61162d565b611197565b9050600061085360085461084d88600101546108476004548761169290919063ffffffff16565b90611692565b906116eb565b905061087261086b8461084d8464e8d4a51000611692565b8590611631565b935050505b6108a5836001015461089f64e8d4a5100061084d86886000015461169290919063ffffffff16565b90611752565b9450505050505b92915050565b6000600683815481106108c157fe5b600091825260208083208684526007825260408085203386529092529220805460049092029092019250831115610934576040805162461bcd60e51b81526020600482015260126024820152711dda5d1a191c985dce881b9bdd0819dbdbd960721b604482015290519081900360640190fd5b61093d84610c5b565b600061096b826001015461089f64e8d4a5100061084d8760030154876000015461169290919063ffffffff16565b905061097733826117af565b81546109839085611752565b80835560038401546109a09164e8d4a510009161084d9190611692565b600183015582546109bb906001600160a01b03163386611940565b604080518581529051869133917ff279e6a1f5e320cca91135676d9cb6e44ca8a08c0b88342bcdb1144f6511b5689181900360200190a35050505050565b6005546001600160a01b0316610a4d576040805162461bcd60e51b815260206004820152601460248201527336b4b3b930ba329d1037379036b4b3b930ba37b960611b604482015290519081900360640190fd5b600060068281548110610a5c57fe5b600091825260208083206004928302018054604080516370a0823160e01b81523095810195909552519195506001600160a01b0316939284926370a0823192602480840193829003018186803b158015610ab557600080fd5b505afa158015610ac9573d6000803e3d6000fd5b505050506040513d6020811015610adf57600080fd5b5051600554909150610afe906001600160a01b03848116911683611992565b6005546040805163ce5494bb60e01b81526001600160a01b0385811660048301529151600093929092169163ce5494bb9160248082019260209290919082900301818787803b158015610b5057600080fd5b505af1158015610b64573d6000803e3d6000fd5b505050506040513d6020811015610b7a57600080fd5b5051604080516370a0823160e01b815230600482015290519192506001600160a01b038316916370a0823191602480820192602092909190829003018186803b158015610bc657600080fd5b505afa158015610bda573d6000803e3d6000fd5b505050506040513d6020811015610bf057600080fd5b50518214610c34576040805162461bcd60e51b815260206004820152600c60248201526b1b5a59dc985d194e8818985960a21b604482015290519081900360640190fd5b83546001600160a01b0319166001600160a01b039190911617909255505050565b60095481565b600060068281548110610c6a57fe5b906000526020600020906004020190508060020154610c8761162d565b11610c925750610e93565b8054604080516370a0823160e01b815230600482015290516000926001600160a01b0316916370a08231916024808301926020929190829003018186803b158015610cdc57600080fd5b505afa158015610cf0573d6000803e3d6000fd5b505050506040513d6020811015610d0657600080fd5b5051905080610d2657610d1761162d565b82600201819055505050610e93565b6000610d38836002015461081b61162d565b90506000610d5f60085461084d86600101546108476004548761169290919063ffffffff16565b6001546002549192506001600160a01b03908116916340c10f199116610d8684600a6116eb565b6040518363ffffffff1660e01b815260040180836001600160a01b0316815260200182815260200192505050600060405180830381600087803b158015610dcc57600080fd5b505af1158015610de0573d6000803e3d6000fd5b5050600154604080516340c10f1960e01b81523060048201526024810186905290516001600160a01b0390921693506340c10f19925060448082019260009290919082900301818387803b158015610e3757600080fd5b505af1158015610e4b573d6000803e3d6000fd5b50505050610e79610e6e8461084d64e8d4a510008561169290919063ffffffff16565b600386015490611631565b6003850155610e8661162d565b8460020181905550505050505b50565b600060068281548110610ea557fe5b60009182526020808320858452600782526040808520338087529352909320805460049093029093018054909450610eea926001600160a01b03919091169190611940565b80546040805191825251849133917fbb757047c2b5f3974fe26b7c10f732e7bce710b0952a71082702781e62ae05959181900360200190a360008082556001909101555050565b60065460005b81811015610f5057610f4881610c5b565b600101610f37565b5050565b610f5c611629565b6001600160a01b0316610f6d611188565b6001600160a01b031614610fb6576040805162461bcd60e51b81526020600482018190526024820152600080516020611e5b833981519152604482015290519081900360640190fd5b8015610fc457610fc4610f31565b61100182610ffb60068681548110610fd857fe5b90600052602060002090600402016001015460085461175290919063ffffffff16565b90611631565b600881905550816006848154811061101557fe5b906000526020600020906004020160010181905550505050565b611037611629565b6001600160a01b0316611048611188565b6001600160a01b031614611091576040805162461bcd60e51b81526020600482018190526024820152600080516020611e5b833981519152604482015290519081900360640190fd5b600080546040516001600160a01b03909116907f8be0079c531659141344cd1fd0a4f28419497f9722a3daafe3b4186f6b6457e0908390a3600080546001600160a01b0319169055565b60045481565b6005546001600160a01b031681565b600a81815481106110fd57fe5b60009182526020909120600290910201805460019091015490915082565b6002546001600160a01b03163314611166576040805162461bcd60e51b81526020600482015260096024820152686465763a207775743f60b81b604482015290519081900360640190fd5b600280546001600160a01b0319166001600160a01b0392909216919091179055565b6000546001600160a01b031690565b6000818311156111a357fe5b600083816111af611dd3565b60005b600a5481101561125c57600a81815481106111c957fe5b9060005260206000209060020201604051806040016040529081600082015481526020016001820154815250509150816000015184111561120957611254565b81518711611217578661121a565b81515b925061124161123a8360200151610847878761175290919063ffffffff16565b8690611631565b9450868314156112505761125c565b8293505b6001016111b2565b50929695505050505050565b60076020908152600092835260408084209091529082529020805460019091015482565b611294611629565b6001600160a01b03166112a5611188565b6001600160a01b0316146112ee576040805162461bcd60e51b81526020600482018190526024820152600080516020611e5b833981519152604482015290519081900360640190fd5b6112f6611dd3565b600a8054611305906001611752565b8154811061130f57fe5b90600052602060002090600202016040518060400160405290816000820154815260200160018201548152505090508060000151831161134e57600080fd5b6040805180820182528481526020808201858152600a805460018101825560009190915292517fc65a7bb8d6351c1cf70c95a316cc6a92839c986682d98bc35f958f4883f9d2a8600290940293840155517fc65a7bb8d6351c1cf70c95a316cc6a92839c986682d98bc35f958f4883f9d2a990920191909155815185815290810184905281517ff382796e364390252f3f83b5ea0665e8b666280c818091e2fb4b807c3e229b61929181900390910190a1505050565b6001546001600160a01b031681565b6002546001600160a01b031681565b60006006838154811061143157fe5b6000918252602080832086845260078252604080852033865290925292206004909102909101915061146284610c5b565b8054156114a5576000611497826001015461089f64e8d4a5100061084d8760030154876000015461169290919063ffffffff16565b90506114a333826117af565b505b81546114bc906001600160a01b0316333086611aa5565b80546114c89084611631565b80825560038301546114e59164e8d4a510009161084d9190611692565b6001820155604080518481529051859133917f90890809c654f11d6e72a28fa60149770a0d11ec6c92319d6ceb2bb0a4ea1a159181900360200190a350505050565b61152f611629565b6001600160a01b0316611540611188565b6001600160a01b031614611589576040805162461bcd60e51b81526020600482018190526024820152600080516020611e5b833981519152604482015290519081900360640190fd5b6001600160a01b0381166115ce5760405162461bcd60e51b8152600401808060200182810382526026815260200180611dee6026913960400191505060405180910390fd5b600080546040516001600160a01b03808516939216917f8be0079c531659141344cd1fd0a4f28419497f9722a3daafe3b4186f6b6457e091a3600080546001600160a01b0319166001600160a01b0392909216919091179055565b3390565b4390565b60008282018381101561168b576040805162461bcd60e51b815260206004820152601b60248201527f536166654d6174683a206164646974696f6e206f766572666c6f770000000000604482015290519081900360640190fd5b9392505050565b6000826116a1575060006108ac565b828202828482816116ae57fe5b041461168b5760405162461bcd60e51b8152600401808060200182810382526021815260200180611e3a6021913960400191505060405180910390fd5b6000808211611741576040805162461bcd60e51b815260206004820152601a60248201527f536166654d6174683a206469766973696f6e206279207a65726f000000000000604482015290519081900360640190fd5b81838161174a57fe5b049392505050565b6000828211156117a9576040805162461bcd60e51b815260206004820152601e60248201527f536166654d6174683a207375627472616374696f6e206f766572666c6f770000604482015290519081900360640190fd5b50900390565b600154604080516370a0823160e01b815230600482015290516000926001600160a01b0316916370a08231916024808301926020929190829003018186803b1580156117fa57600080fd5b505afa15801561180e573d6000803e3d6000fd5b505050506040513d602081101561182457600080fd5b50519050808211156118b8576001546040805163a9059cbb60e01b81526001600160a01b038681166004830152602482018590529151919092169163a9059cbb9160448083019260209291908290030181600087803b15801561188657600080fd5b505af115801561189a573d6000803e3d6000fd5b505050506040513d60208110156118b057600080fd5b5061193b9050565b6001546040805163a9059cbb60e01b81526001600160a01b038681166004830152602482018690529151919092169163a9059cbb9160448083019260209291908290030181600087803b15801561190e57600080fd5b505af1158015611922573d6000803e3d6000fd5b505050506040513d602081101561193857600080fd5b50505b505050565b604080516001600160a01b038416602482015260448082018490528251808303909101815260649091019091526020810180516001600160e01b031663a9059cbb60e01b17905261193b908490611b05565b801580611a18575060408051636eb1769f60e11b81523060048201526001600160a01b03848116602483015291519185169163dd62ed3e91604480820192602092909190829003018186803b1580156119ea57600080fd5b505afa1580156119fe573d6000803e3d6000fd5b505050506040513d6020811015611a1457600080fd5b5051155b611a535760405162461bcd60e51b8152600401808060200182810382526036815260200180611ea56036913960400191505060405180910390fd5b604080516001600160a01b038416602482015260448082018490528251808303909101815260649091019091526020810180516001600160e01b031663095ea7b360e01b17905261193b908490611b05565b604080516001600160a01b0380861660248301528416604482015260648082018490528251808303909101815260849091019091526020810180516001600160e01b03166323b872dd60e01b179052611aff908590611b05565b50505050565b6060611b5a826040518060400160405280602081526020017f5361666545524332303a206c6f772d6c6576656c2063616c6c206661696c6564815250856001600160a01b0316611bb69092919063ffffffff16565b80519091501561193b57808060200190516020811015611b7957600080fd5b505161193b5760405162461bcd60e51b815260040180806020018281038252602a815260200180611e7b602a913960400191505060405180910390fd5b6060611bc58484600085611bcd565b949350505050565b606082471015611c0e5760405162461bcd60e51b8152600401808060200182810382526026815260200180611e146026913960400191505060405180910390fd5b611c1785611d29565b611c68576040805162461bcd60e51b815260206004820152601d60248201527f416464726573733a2063616c6c20746f206e6f6e2d636f6e7472616374000000604482015290519081900360640190fd5b60006060866001600160a01b031685876040518082805190602001908083835b60208310611ca75780518252601f199092019160209182019101611c88565b6001836020036101000a03801982511681845116808217855250505050505090500191505060006040518083038185875af1925050503d8060008114611d09576040519150601f19603f3d011682016040523d82523d6000602084013e611d0e565b606091505b5091509150611d1e828286611d2f565b979650505050505050565b3b151590565b60608315611d3e57508161168b565b825115611d4e5782518084602001fd5b8160405162461bcd60e51b81526004018080602001828103825283818151815260200191508051906020019080838360005b83811015611d98578181015183820152602001611d80565b50505050905090810190601f168015611dc55780820380516001836020036101000a031916815260200191505b509250505060405180910390fd5b60405180604001604052806000815260200160008152509056fe4f776e61626c653a206e6577206f776e657220697320746865207a65726f2061646472657373416464726573733a20696e73756666696369656e742062616c616e636520666f722063616c6c536166654d6174683a206d756c7469706c69636174696f6e206f766572666c6f774f776e61626c653a2063616c6c6572206973206e6f7420746865206f776e65725361666545524332303a204552433230206f7065726174696f6e20646964206e6f7420737563636565645361666545524332303a20617070726f76652066726f6d206e6f6e2d7a65726f20746f206e6f6e2d7a65726f20616c6c6f77616e6365a2646970667358221220fa9303dfca6cf60070946052b314b1b769924672de52b34a0c3dbc363663f47964736f6c634300060c0033",
  "devdoc": {
    "kind": "dev",
    "methods": {
      "owner()": {
        "details": "Returns the address of the current owner."
      },
      "renounceOwnership()": {
        "details": "Leaves the contract without owner. It will not be possible to call `onlyOwner` functions anymore. Can only be called by the current owner. NOTE: Renouncing ownership will leave the contract without an owner, thereby removing any functionality that is only available to the owner."
      },
      "transferOwnership(address)": {
        "details": "Transfers ownership of the contract to a new account (`newOwner`). Can only be called by the current owner."
      }
    },
    "version": 1
  },
  "userdoc": {
    "kind": "user",
    "methods": {},
    "version": 1
  },
  "storageLayout": {
    "storage": [
      {
        "astId": 7,
        "contract": "contracts/EasySwapRewardPool.sol:EasySwapRewardPool",
        "label": "_owner",
        "offset": 0,
        "slot": "0",
        "type": "t_address"
      },
      {
        "astId": 2146,
        "contract": "contracts/EasySwapRewardPool.sol:EasySwapRewardPool",
        "label": "esm",
        "offset": 0,
        "slot": "1",
        "type": "t_contract(EasySwapMakerToken)2101"
      },
      {
        "astId": 2148,
        "contract": "contracts/EasySwapRewardPool.sol:EasySwapRewardPool",
        "label": "devaddr",
        "offset": 0,
        "slot": "2",
        "type": "t_address"
      },
      {
        "astId": 2150,
        "contract": "contracts/EasySwapRewardPool.sol:EasySwapRewardPool",
        "label": "bonusEndBlock",
        "offset": 0,
        "slot": "3",
        "type": "t_uint256"
      },
      {
        "astId": 2152,
        "contract": "contracts/EasySwapRewardPool.sol:EasySwapRewardPool",
        "label": "esmPerBlock",
        "offset": 0,
        "slot": "4",
        "type": "t_uint256"
      },
      {
        "astId": 2154,
        "contract": "contracts/EasySwapRewardPool.sol:EasySwapRewardPool",
        "label": "migrator",
        "offset": 0,
        "slot": "5",
        "type": "t_contract(IMigratorChef)2117"
      },
      {
        "astId": 2157,
        "contract": "contracts/EasySwapRewardPool.sol:EasySwapRewardPool",
        "label": "poolInfo",
        "offset": 0,
        "slot": "6",
        "type": "t_array(t_struct(PoolInfo)2139_storage)dyn_storage"
      },
      {
        "astId": 2163,
        "contract": "contracts/EasySwapRewardPool.sol:EasySwapRewardPool",
        "label": "userInfo",
        "offset": 0,
        "slot": "7",
        "type": "t_mapping(t_uint256,t_mapping(t_address,t_struct(UserInfo)2130_storage))"
      },
      {
        "astId": 2166,
        "contract": "contracts/EasySwapRewardPool.sol:EasySwapRewardPool",
        "label": "totalAllocPoint",
        "offset": 0,
        "slot": "8",
        "type": "t_uint256"
      },
      {
        "astId": 2168,
        "contract": "contracts/EasySwapRewardPool.sol:EasySwapRewardPool",
        "label": "startBlock",
        "offset": 0,
        "slot": "9",
        "type": "t_uint256"
      },
      {
        "astId": 2171,
        "contract": "contracts/EasySwapRewardPool.sol:EasySwapRewardPool",
        "label": "stages",
        "offset": 0,
        "slot": "10",
        "type": "t_array(t_struct(Stage)2144_storage)dyn_storage"
      }
    ],
    "types": {
      "t_address": {
        "encoding": "inplace",
        "label": "address",
        "numberOfBytes": "20"
      },
      "t_array(t_struct(PoolInfo)2139_storage)dyn_storage": {
        "base": "t_struct(PoolInfo)2139_storage",
        "encoding": "dynamic_array",
        "label": "struct EasySwapRewardPool.PoolInfo[]",
        "numberOfBytes": "32"
      },
      "t_array(t_struct(Stage)2144_storage)dyn_storage": {
        "base": "t_struct(Stage)2144_storage",
        "encoding": "dynamic_array",
        "label": "struct EasySwapRewardPool.Stage[]",
        "numberOfBytes": "32"
      },
      "t_contract(EasySwapMakerToken)2101": {
        "encoding": "inplace",
        "label": "contract EasySwapMakerToken",
        "numberOfBytes": "20"
      },
      "t_contract(IERC20)1045": {
        "encoding": "inplace",
        "label": "contract IERC20",
        "numberOfBytes": "20"
      },
      "t_contract(IMigratorChef)2117": {
        "encoding": "inplace",
        "label": "contract IMigratorChef",
        "numberOfBytes": "20"
      },
      "t_mapping(t_address,t_struct(UserInfo)2130_storage)": {
        "encoding": "mapping",
        "key": "t_address",
        "label": "mapping(address => struct EasySwapRewardPool.UserInfo)",
        "numberOfBytes": "32",
        "value": "t_struct(UserInfo)2130_storage"
      },
      "t_mapping(t_uint256,t_mapping(t_address,t_struct(UserInfo)2130_storage))": {
        "encoding": "mapping",
        "key": "t_uint256",
        "label": "mapping(uint256 => mapping(address => struct EasySwapRewardPool.UserInfo))",
        "numberOfBytes": "32",
        "value": "t_mapping(t_address,t_struct(UserInfo)2130_storage)"
      },
      "t_struct(PoolInfo)2139_storage": {
        "encoding": "inplace",
        "label": "struct EasySwapRewardPool.PoolInfo",
        "members": [
          {
            "astId": 2132,
            "contract": "contracts/EasySwapRewardPool.sol:EasySwapRewardPool",
            "label": "lpToken",
            "offset": 0,
            "slot": "0",
            "type": "t_contract(IERC20)1045"
          },
          {
            "astId": 2134,
            "contract": "contracts/EasySwapRewardPool.sol:EasySwapRewardPool",
            "label": "allocPoint",
            "offset": 0,
            "slot": "1",
            "type": "t_uint256"
          },
          {
            "astId": 2136,
            "contract": "contracts/EasySwapRewardPool.sol:EasySwapRewardPool",
            "label": "lastRewardBlock",
            "offset": 0,
            "slot": "2",
            "type": "t_uint256"
          },
          {
            "astId": 2138,
            "contract": "contracts/EasySwapRewardPool.sol:EasySwapRewardPool",
            "label": "accEsmPerShare",
            "offset": 0,
            "slot": "3",
            "type": "t_uint256"
          }
        ],
        "numberOfBytes": "128"
      },
      "t_struct(Stage)2144_storage": {
        "encoding": "inplace",
        "label": "struct EasySwapRewardPool.Stage",
        "members": [
          {
            "astId": 2141,
            "contract": "contracts/EasySwapRewardPool.sol:EasySwapRewardPool",
            "label": "endBlock",
            "offset": 0,
            "slot": "0",
            "type": "t_uint256"
          },
          {
            "astId": 2143,
            "contract": "contracts/EasySwapRewardPool.sol:EasySwapRewardPool",
            "label": "multiplier",
            "offset": 0,
            "slot": "1",
            "type": "t_uint256"
          }
        ],
        "numberOfBytes": "64"
      },
      "t_struct(UserInfo)2130_storage": {
        "encoding": "inplace",
        "label": "struct EasySwapRewardPool.UserInfo",
        "members": [
          {
            "astId": 2127,
            "contract": "contracts/EasySwapRewardPool.sol:EasySwapRewardPool",
            "label": "amount",
            "offset": 0,
            "slot": "0",
            "type": "t_uint256"
          },
          {
            "astId": 2129,
            "contract": "contracts/EasySwapRewardPool.sol:EasySwapRewardPool",
            "label": "rewardDebt",
            "offset": 0,
            "slot": "1",
            "type": "t_uint256"
          }
        ],
        "numberOfBytes": "64"
      },
      "t_uint256": {
        "encoding": "inplace",
        "label": "uint256",
        "numberOfBytes": "32"
      }
    }
  }
}